{
  "contractName": "Crowdfunding",
  "abi": [
    {
      "constant": true,
      "inputs": [
        {
          "name": "",
          "type": "uint256"
        }
      ],
      "name": "projects",
      "outputs": [
        {
          "name": "account",
          "type": "address"
        },
        {
          "name": "name",
          "type": "string"
        },
        {
          "name": "target",
          "type": "uint256"
        },
        {
          "name": "isLive",
          "type": "bool"
        },
        {
          "name": "collection",
          "type": "uint256"
        },
        {
          "name": "nFundings",
          "type": "uint8"
        }
      ],
      "payable": false,
      "stateMutability": "view",
      "type": "function",
      "signature": "0x107046bd"
    },
    {
      "constant": true,
      "inputs": [],
      "name": "nProjects",
      "outputs": [
        {
          "name": "",
          "type": "uint8"
        }
      ],
      "payable": false,
      "stateMutability": "view",
      "type": "function",
      "signature": "0x2ce443a3"
    },
    {
      "constant": true,
      "inputs": [
        {
          "name": "",
          "type": "uint256"
        },
        {
          "name": "",
          "type": "uint256"
        }
      ],
      "name": "fundings",
      "outputs": [
        {
          "name": "from",
          "type": "address"
        },
        {
          "name": "amount",
          "type": "uint256"
        }
      ],
      "payable": false,
      "stateMutability": "view",
      "type": "function",
      "signature": "0x73205d52"
    },
    {
      "constant": true,
      "inputs": [
        {
          "name": "",
          "type": "uint256"
        }
      ],
      "name": "projectAccounts",
      "outputs": [
        {
          "name": "",
          "type": "address"
        }
      ],
      "payable": false,
      "stateMutability": "view",
      "type": "function",
      "signature": "0xd8bae237"
    },
    {
      "inputs": [],
      "payable": false,
      "stateMutability": "nonpayable",
      "type": "constructor",
      "signature": "constructor"
    },
    {
      "anonymous": false,
      "inputs": [
        {
          "indexed": false,
          "name": "sender",
          "type": "address"
        },
        {
          "indexed": false,
          "name": "project",
          "type": "uint256"
        },
        {
          "indexed": false,
          "name": "amount",
          "type": "uint256"
        }
      ],
      "name": "Funded",
      "type": "event",
      "signature": "0xcd909ec339185c4598a4096e174308fbdf136d117f230960f873a2f2e81f63af"
    },
    {
      "anonymous": false,
      "inputs": [
        {
          "indexed": false,
          "name": "creator",
          "type": "address"
        },
        {
          "indexed": false,
          "name": "name",
          "type": "string"
        },
        {
          "indexed": false,
          "name": "target",
          "type": "uint256"
        }
      ],
      "name": "ProjectCreated",
      "type": "event",
      "signature": "0x14d412ab7f17dd4a99523bcd692333c46877e622687304dabefc4ba03dd0399e"
    },
    {
      "constant": true,
      "inputs": [
        {
          "name": "acc",
          "type": "address"
        }
      ],
      "name": "isProject",
      "outputs": [
        {
          "name": "",
          "type": "bool"
        }
      ],
      "payable": false,
      "stateMutability": "view",
      "type": "function",
      "signature": "0x05c81408"
    },
    {
      "constant": true,
      "inputs": [
        {
          "name": "acc",
          "type": "address"
        }
      ],
      "name": "getProjectId",
      "outputs": [
        {
          "name": "",
          "type": "uint8"
        }
      ],
      "payable": false,
      "stateMutability": "view",
      "type": "function",
      "signature": "0x7f1feb8e"
    },
    {
      "constant": true,
      "inputs": [
        {
          "name": "id",
          "type": "uint8"
        }
      ],
      "name": "getNFundings",
      "outputs": [
        {
          "name": "",
          "type": "uint8"
        }
      ],
      "payable": false,
      "stateMutability": "view",
      "type": "function",
      "signature": "0xb08d5ff1"
    },
    {
      "constant": true,
      "inputs": [
        {
          "name": "id",
          "type": "uint256"
        },
        {
          "name": "i",
          "type": "uint8"
        }
      ],
      "name": "getFunderAcc",
      "outputs": [
        {
          "name": "",
          "type": "address"
        }
      ],
      "payable": false,
      "stateMutability": "view",
      "type": "function",
      "signature": "0x14874636"
    },
    {
      "constant": true,
      "inputs": [
        {
          "name": "id",
          "type": "uint8"
        },
        {
          "name": "i",
          "type": "uint8"
        }
      ],
      "name": "getFunderAmount",
      "outputs": [
        {
          "name": "",
          "type": "uint256"
        }
      ],
      "payable": false,
      "stateMutability": "view",
      "type": "function",
      "signature": "0x5cac1718"
    },
    {
      "constant": false,
      "inputs": [
        {
          "name": "_name",
          "type": "string"
        },
        {
          "name": "_target",
          "type": "uint256"
        },
        {
          "name": "_isLive",
          "type": "bool"
        }
      ],
      "name": "createProject",
      "outputs": [],
      "payable": false,
      "stateMutability": "nonpayable",
      "type": "function",
      "signature": "0x62ba7a64"
    },
    {
      "constant": false,
      "inputs": [
        {
          "name": "projectId",
          "type": "uint256"
        },
        {
          "name": "amount",
          "type": "uint256"
        }
      ],
      "name": "fundProject",
      "outputs": [],
      "payable": true,
      "stateMutability": "payable",
      "type": "function",
      "signature": "0x01cda5a4"
    },
    {
      "constant": true,
      "inputs": [
        {
          "name": "projectId",
          "type": "uint256"
        }
      ],
      "name": "currentContributions",
      "outputs": [
        {
          "name": "",
          "type": "uint256"
        }
      ],
      "payable": false,
      "stateMutability": "view",
      "type": "function",
      "signature": "0xe363209b"
    },
    {
      "constant": true,
      "inputs": [
        {
          "name": "projectId",
          "type": "uint256"
        }
      ],
      "name": "target",
      "outputs": [
        {
          "name": "",
          "type": "uint256"
        }
      ],
      "payable": false,
      "stateMutability": "view",
      "type": "function",
      "signature": "0x9811c7c1"
    },
    {
      "constant": true,
      "inputs": [
        {
          "name": "projectId",
          "type": "uint8"
        }
      ],
      "name": "getProjectName",
      "outputs": [
        {
          "name": "",
          "type": "string"
        }
      ],
      "payable": false,
      "stateMutability": "view",
      "type": "function",
      "signature": "0x9b2407b9"
    },
    {
      "constant": true,
      "inputs": [
        {
          "name": "projectId",
          "type": "uint8"
        }
      ],
      "name": "getProjectAccount",
      "outputs": [
        {
          "name": "",
          "type": "address"
        }
      ],
      "payable": false,
      "stateMutability": "view",
      "type": "function",
      "signature": "0x60b8c184"
    },
    {
      "constant": true,
      "inputs": [
        {
          "name": "projectId",
          "type": "uint8"
        }
      ],
      "name": "isLive",
      "outputs": [
        {
          "name": "",
          "type": "bool"
        }
      ],
      "payable": false,
      "stateMutability": "view",
      "type": "function",
      "signature": "0x5b6d6973"
    },
    {
      "constant": false,
      "inputs": [
        {
          "name": "projectId",
          "type": "uint8"
        }
      ],
      "name": "isTargetReached",
      "outputs": [
        {
          "name": "",
          "type": "bool"
        }
      ],
      "payable": false,
      "stateMutability": "nonpayable",
      "type": "function",
      "signature": "0xf4fa081c"
    }
  ],
  "bytecode": "0x608060405234801561001057600080fd5b5060008060006101000a81548160ff021916908360ff1602179055506115308061003b6000396000f3fe6080604052600436106100f1576000357c0100000000000000000000000000000000000000000000000000000000900463ffffffff16806301cda5a4146100f657806305c814081461012e578063107046bd1461019757806314874636146102a45780632ce443a31461032c5780635b6d69731461035d5780635cac1718146103b357806360b8c1841461041257806362ba7a641461049057806373205d521461056e5780637f1feb8e146105fa5780639811c7c1146106655780639b2407b9146106b4578063b08d5ff11461076b578063d8bae237146107c3578063e363209b1461083e578063f4fa081c1461088d575b600080fd5b61012c6004803603604081101561010c57600080fd5b8101908080359060200190929190803590602001909291905050506108e3565b005b34801561013a57600080fd5b5061017d6004803603602081101561015157600080fd5b81019080803573ffffffffffffffffffffffffffffffffffffffff169060200190929190505050610bb1565b604051808215151515815260200191505060405180910390f35b3480156101a357600080fd5b506101d0600480360360208110156101ba57600080fd5b8101908080359060200190929190505050610c67565b604051808773ffffffffffffffffffffffffffffffffffffffff1673ffffffffffffffffffffffffffffffffffffffff16815260200180602001868152602001851515151581526020018481526020018360ff1660ff168152602001828103825287818151815260200191508051906020019080838360005b83811015610264578082015181840152602081019050610249565b50505050905090810190601f1680156102915780820380516001836020036101000a031916815260200191505b5097505050505050505060405180910390f35b3480156102b057600080fd5b506102ea600480360360408110156102c757600080fd5b8101908080359060200190929190803560ff169060200190929190505050610d75565b604051808273ffffffffffffffffffffffffffffffffffffffff1673ffffffffffffffffffffffffffffffffffffffff16815260200191505060405180910390f35b34801561033857600080fd5b50610341610dcf565b604051808260ff1660ff16815260200191505060405180910390f35b34801561036957600080fd5b506103996004803603602081101561038057600080fd5b81019080803560ff169060200190929190505050610de1565b604051808215151515815260200191505060405180910390f35b3480156103bf57600080fd5b506103fc600480360360408110156103d657600080fd5b81019080803560ff169060200190929190803560ff169060200190929190505050610e11565b6040518082815260200191505060405180910390f35b34801561041e57600080fd5b5061044e6004803603602081101561043557600080fd5b81019080803560ff169060200190929190505050610e4e565b604051808273ffffffffffffffffffffffffffffffffffffffff1673ffffffffffffffffffffffffffffffffffffffff16815260200191505060405180910390f35b34801561049c57600080fd5b5061056c600480360360608110156104b357600080fd5b81019080803590602001906401000000008111156104d057600080fd5b8201836020820111156104e257600080fd5b8035906020019184600183028401116401000000008311171561050457600080fd5b91908080601f016020809104026020016040519081016040528093929190818152602001838380828437600081840152601f19601f82011690508083019250505050505050919291929080359060200190929190803515159060200190929190505050610e91565b005b34801561057a57600080fd5b506105b16004803603604081101561059157600080fd5b810190808035906020019092919080359060200190929190505050611130565b604051808373ffffffffffffffffffffffffffffffffffffffff1673ffffffffffffffffffffffffffffffffffffffff1681526020018281526020019250505060405180910390f35b34801561060657600080fd5b506106496004803603602081101561061d57600080fd5b81019080803573ffffffffffffffffffffffffffffffffffffffff169060200190929190505050611181565b604051808260ff1660ff16815260200191505060405180910390f35b34801561067157600080fd5b5061069e6004803603602081101561068857600080fd5b8101908080359060200190929190505050611239565b6040518082815260200191505060405180910390f35b3480156106c057600080fd5b506106f0600480360360208110156106d757600080fd5b81019080803560ff169060200190929190505050611259565b6040518080602001828103825283818151815260200191508051906020019080838360005b83811015610730578082015181840152602081019050610715565b50505050905090810190601f16801561075d5780820380516001836020036101000a031916815260200191505b509250505060405180910390f35b34801561077757600080fd5b506107a76004803603602081101561078e57600080fd5b81019080803560ff169060200190929190505050611314565b604051808260ff1660ff16815260200191505060405180910390f35b3480156107cf57600080fd5b506107fc600480360360208110156107e657600080fd5b8101908080359060200190929190505050611349565b604051808273ffffffffffffffffffffffffffffffffffffffff1673ffffffffffffffffffffffffffffffffffffffff16815260200191505060405180910390f35b34801561084a57600080fd5b506108776004803603602081101561086157600080fd5b8101908080359060200190929190505050611387565b6040518082815260200191505060405180910390f35b34801561089957600080fd5b506108c9600480360360208110156108b057600080fd5b81019080803560ff1690602001909291905050506113a7565b604051808215151515815260200191505060405180910390f35b6001600083815260200190815260200160002060030160009054906101000a900460ff16151561097b576040517f08c379a00000000000000000000000000000000000000000000000000000000081526004018080602001828103825260208152602001807f50726f6a656374206973206e6f74206f70656e20666f722066756e64696e672e81525060200191505060405180910390fd5b6001600083815260200190815260200160002060000160009054906101000a900473ffffffffffffffffffffffffffffffffffffffff1673ffffffffffffffffffffffffffffffffffffffff166108fc829081150290604051600060405180830381858888f193505050501580156109f7573d6000803e3d6000fd5b5080600160008481526020019081526020016000206004015401600160008481526020019081526020016000206004018190555060016000838152602001908152602001600020600501600081819054906101000a900460ff168092919060010191906101000a81548160ff021916908360ff1602179055505060408051908101604052803373ffffffffffffffffffffffffffffffffffffffff168152602001828152506002600084815260200190815260200160002060006001600086815260200190815260200160002060050160009054906101000a900460ff1660ff16815260200190815260200160002060008201518160000160006101000a81548173ffffffffffffffffffffffffffffffffffffffff021916908373ffffffffffffffffffffffffffffffffffffffff160217905550602082015181600101559050507fcd909ec339185c4598a4096e174308fbdf136d117f230960f873a2f2e81f63af338383604051808473ffffffffffffffffffffffffffffffffffffffff1673ffffffffffffffffffffffffffffffffffffffff168152602001838152602001828152602001935050505060405180910390a15050565b600080600090505b6000809054906101000a900460ff1660ff168160ff161015610c5c578273ffffffffffffffffffffffffffffffffffffffff1660038260ff16815481101515610bfe57fe5b9060005260206000200160009054906101000a900473ffffffffffffffffffffffffffffffffffffffff1673ffffffffffffffffffffffffffffffffffffffff161415610c4f576001915050610c62565b8080600101915050610bb9565b50600090505b919050565b60016020528060005260406000206000915090508060000160009054906101000a900473ffffffffffffffffffffffffffffffffffffffff1690806001018054600181600116156101000203166002900480601f016020809104026020016040519081016040528092919081815260200182805460018160011615610100020316600290048015610d395780601f10610d0e57610100808354040283529160200191610d39565b820191906000526020600020905b815481529060010190602001808311610d1c57829003601f168201915b5050505050908060020154908060030160009054906101000a900460ff16908060040154908060050160009054906101000a900460ff16905086565b6000806002600085815260200190815260200160002060008460ff16815260200190815260200160002060000160009054906101000a900473ffffffffffffffffffffffffffffffffffffffff1690508091505092915050565b6000809054906101000a900460ff1681565b6000600160008360ff16815260200190815260200160002060030160009054906101000a900460ff169050919050565b600080600260008560ff16815260200190815260200160002060008460ff1681526020019081526020016000206001015490508091505092915050565b6000600160008360ff16815260200190815260200160002060000160009054906101000a900473ffffffffffffffffffffffffffffffffffffffff169050919050565b60008081819054906101000a900460ff168092919060010191906101000a81548160ff021916908360ff1602179055505060c0604051908101604052803373ffffffffffffffffffffffffffffffffffffffff168152602001848152602001838152602001821515815260200160008152602001600060ff16815250600160008060009054906101000a900460ff1660ff16815260200190815260200160002060008201518160000160006101000a81548173ffffffffffffffffffffffffffffffffffffffff021916908373ffffffffffffffffffffffffffffffffffffffff1602179055506020820151816001019080519060200190610f9492919061145f565b506040820151816002015560608201518160030160006101000a81548160ff0219169083151502179055506080820151816004015560a08201518160050160006101000a81548160ff021916908360ff16021790555090505060033390806001815401808255809150509060018203906000526020600020016000909192909190916101000a81548173ffffffffffffffffffffffffffffffffffffffff021916908373ffffffffffffffffffffffffffffffffffffffff160217905550507f14d412ab7f17dd4a99523bcd692333c46877e622687304dabefc4ba03dd0399e338484604051808473ffffffffffffffffffffffffffffffffffffffff1673ffffffffffffffffffffffffffffffffffffffff16815260200180602001838152602001828103825284818151815260200191508051906020019080838360005b838110156110ef5780820151818401526020810190506110d4565b50505050905090810190601f16801561111c5780820380516001836020036101000a031916815260200191505b5094505050505060405180910390a1505050565b6002602052816000526040600020602052806000526040600020600091509150508060000160009054906101000a900473ffffffffffffffffffffffffffffffffffffffff16908060010154905082565b600080600090505b6000809054906101000a900460ff1660ff168160ff16101561122e578273ffffffffffffffffffffffffffffffffffffffff1660038260ff168154811015156111ce57fe5b9060005260206000200160009054906101000a900473ffffffffffffffffffffffffffffffffffffffff1673ffffffffffffffffffffffffffffffffffffffff1614156112215760018101915050611234565b8080600101915050611189565b50600090505b919050565b600060016000838152602001908152602001600020600201549050919050565b6060600160008360ff1681526020019081526020016000206001018054600181600116156101000203166002900480601f0160208091040260200160405190810160405280929190818152602001828054600181600116156101000203166002900480156113085780601f106112dd57610100808354040283529160200191611308565b820191906000526020600020905b8154815290600101906020018083116112eb57829003601f168201915b50505050509050919050565b600080600160008460ff16815260200190815260200160002060050160009054906101000a900460ff16905080915050919050565b60038181548110151561135857fe5b906000526020600020016000915054906101000a900473ffffffffffffffffffffffffffffffffffffffff1681565b600060016000838152602001908152602001600020600401549050919050565b6000600160008360ff16815260200190815260200160002060020154600160008460ff16815260200190815260200160002060000160009054906101000a900473ffffffffffffffffffffffffffffffffffffffff1673ffffffffffffffffffffffffffffffffffffffff16311115611455576000600160008460ff16815260200190815260200160002060030160006101000a81548160ff0219169083151502179055506001905061145a565b600090505b919050565b828054600181600116156101000203166002900490600052602060002090601f016020900481019282601f106114a057805160ff19168380011785556114ce565b828001600101855582156114ce579182015b828111156114cd5782518255916020019190600101906114b2565b5b5090506114db91906114df565b5090565b61150191905b808211156114fd5760008160009055506001016114e5565b5090565b9056fea165627a7a72305820a2cdc2ca8ced4f19a4921757575d4c287f1198d7c922a867f2d9e7070aeb7ce30029",
  "source": "// SPDX-License-Identifier: GPL-3.0\r\n\r\npragma solidity >=0.5.0;\r\n\r\ncontract Crowdfunding {\r\n    \r\n    struct Fund {\r\n        address from;\r\n        uint256 amount;\r\n    }\r\n    \r\n    struct Project {\r\n        address payable account;\r\n        string name;\r\n\r\n        uint256 target;\r\n        bool isLive;\r\n        uint256 collection;\r\n        uint8 nFundings;\r\n    }\r\n    \r\n    uint8 public nProjects;\r\n    constructor () public{\r\n        nProjects = 0;\r\n    }\r\n    \r\n    mapping(uint => Project) public projects;\r\n    mapping(uint => mapping(uint=>Fund)) public fundings;\r\n    address[] public projectAccounts;\r\n    \r\n    event Funded(address sender, uint project, uint256 amount);\r\n    event ProjectCreated(address creator, string name, uint256 target);\r\n    \r\n    function isProject(address acc) public view returns (bool){\r\n        for(uint8 i= 0; i < nProjects; i++ ){\r\n            if(projectAccounts[i]==acc){\r\n                return true;\r\n            }\r\n        }\r\n        return false;\r\n    }\r\n\r\n    function getProjectId(address acc) public view returns (uint8){\r\n        for(uint8 i= 0; i < nProjects; i++ ){\r\n            if(projectAccounts[i]==acc){\r\n                return i+1;\r\n            }\r\n        }\r\n        return 0;\r\n    }\r\n\r\n    function getNFundings(uint8 id) public view returns (uint8){\r\n        uint8 x = projects[id].nFundings;\r\n        return x;\r\n    }\r\n\r\n    function getFunderAcc(uint id,uint8 i) public view returns (address){\r\n        address x = fundings[id][i].from;\r\n        return x;\r\n    }\r\n\r\n    function getFunderAmount(uint8 id,uint8 i) public view returns (uint){\r\n        uint x = fundings[id][i].amount;\r\n        return x;\r\n    }\r\n\r\n    function createProject(string memory _name, uint256 _target, bool _isLive) public{\r\n        nProjects ++;\r\n        projects[nProjects] = Project(msg.sender,_name,_target,_isLive,0,0);\r\n        projectAccounts.push(msg.sender);\r\n        emit ProjectCreated(msg.sender, _name, _target);\r\n    }\r\n    \r\n    function fundProject(uint projectId,uint256 amount) payable public{\r\n        require( projects[projectId].isLive, \"Project is not open for funding.\");\r\n        projects[projectId].account.transfer(amount);\r\n        projects[projectId].collection = projects[projectId].collection + amount; \r\n        projects[projectId].nFundings++;\r\n        fundings[projectId][projects[projectId].nFundings]= Fund(msg.sender,amount);\r\n        emit Funded(msg.sender, projectId, amount);\r\n    }\r\n    \r\n    function currentContributions(uint projectId) public view returns(uint) {\r\n        return projects[projectId].collection; \r\n    }\r\n    \r\n    function target(uint projectId) public view returns(uint) {\r\n        return projects[projectId].target;\r\n    }\r\n    \r\n    function getProjectName(uint8 projectId) public view returns(string memory) {\r\n        return projects[projectId].name;\r\n    }\r\n    \r\n    function getProjectAccount(uint8 projectId) public view returns(address){\r\n        return projects[projectId].account;\r\n    }\r\n    function isLive(uint8 projectId) public view returns(bool){\r\n        return projects[projectId].isLive;\r\n    }\r\n    \r\n    function isTargetReached(uint8 projectId) public returns(bool){\r\n        if(projects[projectId].account.balance>projects[projectId].target){\r\n            projects[projectId].isLive = false;\r\n            return true;\r\n        }\r\n        return false;\r\n    }    \r\n} \r\n",
  "sourcePath": "C:/Users/naresh panchal/blockC/crowd-funding/src/contracts/Crowdfunding.sol",
  "compiler": {
    "name": "solc",
    "version": "0.5.0+commit.1d4f565a.Emscripten.clang"
  },
  "schemaVersion": "3.0.1",
  "updatedAt": "2021-04-14T17:50:57.809Z",
  "devdoc": {
    "methods": {}
  },
  "userdoc": {
    "methods": {}
  }
}