{
  "contractName": "Crowdfunding",
  "abi": [
    {
      "constant": true,
      "inputs": [
        {
          "name": "",
          "type": "uint256"
        }
      ],
      "name": "projects",
      "outputs": [
        {
          "name": "account",
          "type": "address"
        },
        {
          "name": "name",
          "type": "string"
        },
        {
          "name": "target",
          "type": "uint256"
        },
        {
          "name": "life",
          "type": "uint256"
        },
        {
          "name": "isLive",
          "type": "bool"
        },
        {
          "name": "collection",
          "type": "uint256"
        },
        {
          "name": "nFundings",
          "type": "uint8"
        },
        {
          "name": "closed",
          "type": "bool"
        }
      ],
      "payable": false,
      "stateMutability": "view",
      "type": "function",
      "signature": "0x107046bd"
    },
    {
      "constant": true,
      "inputs": [],
      "name": "nClosed",
      "outputs": [
        {
          "name": "",
          "type": "uint8"
        }
      ],
      "payable": false,
      "stateMutability": "view",
      "type": "function",
      "signature": "0x1363f379"
    },
    {
      "constant": true,
      "inputs": [],
      "name": "nProjects",
      "outputs": [
        {
          "name": "",
          "type": "uint8"
        }
      ],
      "payable": false,
      "stateMutability": "view",
      "type": "function",
      "signature": "0x2ce443a3"
    },
    {
      "constant": true,
      "inputs": [
        {
          "name": "",
          "type": "uint256"
        },
        {
          "name": "",
          "type": "uint256"
        }
      ],
      "name": "fundings",
      "outputs": [
        {
          "name": "fromAcc",
          "type": "address"
        },
        {
          "name": "amount",
          "type": "uint256"
        },
        {
          "name": "timestamp",
          "type": "uint256"
        }
      ],
      "payable": false,
      "stateMutability": "view",
      "type": "function",
      "signature": "0x73205d52"
    },
    {
      "constant": true,
      "inputs": [
        {
          "name": "",
          "type": "uint256"
        }
      ],
      "name": "projectAccounts",
      "outputs": [
        {
          "name": "",
          "type": "address"
        }
      ],
      "payable": false,
      "stateMutability": "view",
      "type": "function",
      "signature": "0xd8bae237"
    },
    {
      "inputs": [],
      "payable": false,
      "stateMutability": "nonpayable",
      "type": "constructor",
      "signature": "constructor"
    },
    {
      "anonymous": false,
      "inputs": [
        {
          "indexed": false,
          "name": "sender",
          "type": "address"
        },
        {
          "indexed": false,
          "name": "project",
          "type": "uint256"
        },
        {
          "indexed": false,
          "name": "amount",
          "type": "uint256"
        }
      ],
      "name": "Funded",
      "type": "event",
      "signature": "0xcd909ec339185c4598a4096e174308fbdf136d117f230960f873a2f2e81f63af"
    },
    {
      "anonymous": false,
      "inputs": [
        {
          "indexed": false,
          "name": "projectAcc",
          "type": "address"
        },
        {
          "indexed": false,
          "name": "name",
          "type": "string"
        },
        {
          "indexed": false,
          "name": "target",
          "type": "uint256"
        }
      ],
      "name": "ProjectCreated",
      "type": "event",
      "signature": "0x14d412ab7f17dd4a99523bcd692333c46877e622687304dabefc4ba03dd0399e"
    },
    {
      "anonymous": false,
      "inputs": [
        {
          "indexed": false,
          "name": "projectId",
          "type": "uint8"
        }
      ],
      "name": "TargetReached",
      "type": "event",
      "signature": "0x5cda1a044f4267aea09f68f1a507191ecf23c1c1d60290e54dab332e14ad7c89"
    },
    {
      "anonymous": false,
      "inputs": [
        {
          "indexed": false,
          "name": "projectId",
          "type": "uint8"
        }
      ],
      "name": "ProjectFailed",
      "type": "event",
      "signature": "0xdf595b3eee117df4b1cb916e24a51a62d5f787f0861ce6520ea2fd6323af24a1"
    },
    {
      "anonymous": false,
      "inputs": [
        {
          "indexed": false,
          "name": "projectId",
          "type": "uint8"
        },
        {
          "indexed": false,
          "name": "name",
          "type": "string"
        }
      ],
      "name": "ProjectClosed",
      "type": "event",
      "signature": "0x0d3d0efa63ead1b8d474501e306b2d0f73ffab4d52f6efbb7fabf546d9f01a03"
    },
    {
      "anonymous": false,
      "inputs": [
        {
          "indexed": false,
          "name": "projectId",
          "type": "uint8"
        }
      ],
      "name": "checkProjectStatus",
      "type": "event",
      "signature": "0xcf62bf3e90ab88c94d1d6e0f11d6025fb874ed1f64851ecac6071983760b5a9a"
    },
    {
      "constant": false,
      "inputs": [
        {
          "name": "_name",
          "type": "string"
        },
        {
          "name": "_target",
          "type": "uint256"
        },
        {
          "name": "alive_for",
          "type": "uint256"
        }
      ],
      "name": "createProject",
      "outputs": [],
      "payable": false,
      "stateMutability": "nonpayable",
      "type": "function",
      "signature": "0xf3a6ac5f"
    },
    {
      "constant": true,
      "inputs": [
        {
          "name": "acc",
          "type": "address"
        }
      ],
      "name": "isProject",
      "outputs": [
        {
          "name": "",
          "type": "bool"
        }
      ],
      "payable": false,
      "stateMutability": "view",
      "type": "function",
      "signature": "0x05c81408"
    },
    {
      "constant": true,
      "inputs": [
        {
          "name": "acc",
          "type": "address"
        }
      ],
      "name": "getProjectId",
      "outputs": [
        {
          "name": "",
          "type": "uint8"
        }
      ],
      "payable": false,
      "stateMutability": "view",
      "type": "function",
      "signature": "0x7f1feb8e"
    },
    {
      "constant": false,
      "inputs": [
        {
          "name": "projectId",
          "type": "uint8"
        },
        {
          "name": "amount",
          "type": "uint256"
        }
      ],
      "name": "fundProject",
      "outputs": [],
      "payable": true,
      "stateMutability": "payable",
      "type": "function",
      "signature": "0xdbb97620"
    },
    {
      "constant": false,
      "inputs": [
        {
          "name": "id",
          "type": "uint8"
        },
        {
          "name": "amount",
          "type": "uint256"
        }
      ],
      "name": "payToProjectAccount",
      "outputs": [
        {
          "name": "",
          "type": "uint8"
        }
      ],
      "payable": true,
      "stateMutability": "payable",
      "type": "function",
      "signature": "0xd3bf89fb"
    },
    {
      "constant": false,
      "inputs": [
        {
          "name": "id",
          "type": "uint8"
        },
        {
          "name": "fundId",
          "type": "uint8"
        },
        {
          "name": "amount",
          "type": "uint256"
        }
      ],
      "name": "payToProjectFunder",
      "outputs": [
        {
          "name": "",
          "type": "uint8"
        }
      ],
      "payable": true,
      "stateMutability": "payable",
      "type": "function",
      "signature": "0x5d4a10be"
    },
    {
      "constant": false,
      "inputs": [],
      "name": "projectResults",
      "outputs": [
        {
          "name": "",
          "type": "uint8"
        }
      ],
      "payable": true,
      "stateMutability": "payable",
      "type": "function",
      "signature": "0xa9c138f2"
    },
    {
      "constant": true,
      "inputs": [
        {
          "name": "projectId",
          "type": "uint256"
        }
      ],
      "name": "currentContributions",
      "outputs": [
        {
          "name": "",
          "type": "uint256"
        }
      ],
      "payable": false,
      "stateMutability": "view",
      "type": "function",
      "signature": "0xe363209b"
    },
    {
      "constant": true,
      "inputs": [
        {
          "name": "projectId",
          "type": "uint256"
        }
      ],
      "name": "target",
      "outputs": [
        {
          "name": "",
          "type": "uint256"
        }
      ],
      "payable": false,
      "stateMutability": "view",
      "type": "function",
      "signature": "0x9811c7c1"
    },
    {
      "constant": true,
      "inputs": [
        {
          "name": "projectId",
          "type": "uint8"
        }
      ],
      "name": "getProjectName",
      "outputs": [
        {
          "name": "",
          "type": "string"
        }
      ],
      "payable": false,
      "stateMutability": "view",
      "type": "function",
      "signature": "0x9b2407b9"
    },
    {
      "constant": true,
      "inputs": [
        {
          "name": "projectId",
          "type": "uint8"
        }
      ],
      "name": "getProjectAccount",
      "outputs": [
        {
          "name": "",
          "type": "address"
        }
      ],
      "payable": false,
      "stateMutability": "view",
      "type": "function",
      "signature": "0x60b8c184"
    },
    {
      "constant": true,
      "inputs": [
        {
          "name": "projectId",
          "type": "uint8"
        },
        {
          "name": "currentTime",
          "type": "uint256"
        }
      ],
      "name": "isProjectAlive",
      "outputs": [
        {
          "name": "",
          "type": "bool"
        }
      ],
      "payable": false,
      "stateMutability": "view",
      "type": "function",
      "signature": "0x43b219b8"
    },
    {
      "constant": true,
      "inputs": [
        {
          "name": "projectId",
          "type": "uint8"
        }
      ],
      "name": "isTargetReached",
      "outputs": [
        {
          "name": "",
          "type": "bool"
        }
      ],
      "payable": false,
      "stateMutability": "view",
      "type": "function",
      "signature": "0xf4fa081c"
    },
    {
      "constant": true,
      "inputs": [
        {
          "name": "x",
          "type": "uint256"
        }
      ],
      "name": "nowPlus",
      "outputs": [
        {
          "name": "",
          "type": "uint256"
        }
      ],
      "payable": false,
      "stateMutability": "view",
      "type": "function",
      "signature": "0x92898e0e"
    },
    {
      "constant": true,
      "inputs": [],
      "name": "getOwnerAddress",
      "outputs": [
        {
          "name": "",
          "type": "address"
        }
      ],
      "payable": false,
      "stateMutability": "view",
      "type": "function",
      "signature": "0x0c4f65bd"
    },
    {
      "constant": true,
      "inputs": [
        {
          "name": "projectId",
          "type": "uint8"
        }
      ],
      "name": "isClosed",
      "outputs": [
        {
          "name": "",
          "type": "bool"
        }
      ],
      "payable": false,
      "stateMutability": "view",
      "type": "function",
      "signature": "0x500cd8b4"
    },
    {
      "constant": true,
      "inputs": [
        {
          "name": "projectId",
          "type": "uint8"
        }
      ],
      "name": "getProjectLife",
      "outputs": [
        {
          "name": "",
          "type": "uint256"
        }
      ],
      "payable": false,
      "stateMutability": "view",
      "type": "function",
      "signature": "0x8b5787f0"
    },
    {
      "constant": true,
      "inputs": [
        {
          "name": "projectId",
          "type": "uint8"
        }
      ],
      "name": "getNFundings",
      "outputs": [
        {
          "name": "",
          "type": "uint8"
        }
      ],
      "payable": false,
      "stateMutability": "view",
      "type": "function",
      "signature": "0xb08d5ff1"
    }
  ],
  "bytecode": "0x60806040526000600460006101000a81548160ff021916908360ff16021790555034801561002c57600080fd5b50336000806101000a81548173ffffffffffffffffffffffffffffffffffffffff021916908373ffffffffffffffffffffffffffffffffffffffff16021790555060008060146101000a81548160ff021916908360ff160217905550612e0c806100976000396000f3fe608060405260043610610133576000357c0100000000000000000000000000000000000000000000000000000000900463ffffffff16806305c81408146101385780630c4f65bd146101a1578063107046bd146101f85780631363f379146103175780632ce443a31461034857806343b219b814610379578063500cd8b4146103d95780635d4a10be1461042f57806360b8c1841461049157806373205d521461050f5780637f1feb8e146105a25780638b5787f01461060d57806392898e0e1461065f5780639811c7c1146106ae5780639b2407b9146106fd578063a9c138f2146107b4578063b08d5ff1146107d8578063d3bf89fb14610830578063d8bae23714610885578063dbb9762014610900578063e363209b1461093b578063f3a6ac5f1461098a578063f4fa081c14610a66575b600080fd5b34801561014457600080fd5b506101876004803603602081101561015b57600080fd5b81019080803573ffffffffffffffffffffffffffffffffffffffff169060200190929190505050610abc565b604051808215151515815260200191505060405180910390f35b3480156101ad57600080fd5b506101b6610b73565b604051808273ffffffffffffffffffffffffffffffffffffffff1673ffffffffffffffffffffffffffffffffffffffff16815260200191505060405180910390f35b34801561020457600080fd5b506102316004803603602081101561021b57600080fd5b8101908080359060200190929190505050610b9c565b604051808973ffffffffffffffffffffffffffffffffffffffff1673ffffffffffffffffffffffffffffffffffffffff16815260200180602001888152602001878152602001861515151581526020018581526020018460ff1660ff16815260200183151515158152602001828103825289818151815260200191508051906020019080838360005b838110156102d55780820151818401526020810190506102ba565b50505050905090810190601f1680156103025780820380516001836020036101000a031916815260200191505b50995050505050505050505060405180910390f35b34801561032357600080fd5b5061032c610cc3565b604051808260ff1660ff16815260200191505060405180910390f35b34801561035457600080fd5b5061035d610cd6565b604051808260ff1660ff16815260200191505060405180910390f35b34801561038557600080fd5b506103bf6004803603604081101561039c57600080fd5b81019080803560ff16906020019092919080359060200190929190505050610ce9565b604051808215151515815260200191505060405180910390f35b3480156103e557600080fd5b50610415600480360360208110156103fc57600080fd5b81019080803560ff169060200190929190505050610d20565b604051808215151515815260200191505060405180910390f35b6104756004803603606081101561044557600080fd5b81019080803560ff169060200190929190803560ff16906020019092919080359060200190929190505050610d50565b604051808260ff1660ff16815260200191505060405180910390f35b34801561049d57600080fd5b506104cd600480360360208110156104b457600080fd5b81019080803560ff1690602001909291905050506112ac565b604051808273ffffffffffffffffffffffffffffffffffffffff1673ffffffffffffffffffffffffffffffffffffffff16815260200191505060405180910390f35b34801561051b57600080fd5b506105526004803603604081101561053257600080fd5b8101908080359060200190929190803590602001909291905050506112ef565b604051808473ffffffffffffffffffffffffffffffffffffffff1673ffffffffffffffffffffffffffffffffffffffff168152602001838152602001828152602001935050505060405180910390f35b3480156105ae57600080fd5b506105f1600480360360208110156105c557600080fd5b81019080803573ffffffffffffffffffffffffffffffffffffffff169060200190929190505050611346565b604051808260ff1660ff16815260200191505060405180910390f35b34801561061957600080fd5b506106496004803603602081101561063057600080fd5b81019080803560ff1690602001909291905050506113ff565b6040518082815260200191505060405180910390f35b34801561066b57600080fd5b506106986004803603602081101561068257600080fd5b8101908080359060200190929190505050611422565b6040518082815260200191505060405180910390f35b3480156106ba57600080fd5b506106e7600480360360208110156106d157600080fd5b8101908080359060200190929190505050611436565b6040518082815260200191505060405180910390f35b34801561070957600080fd5b506107396004803603602081101561072057600080fd5b81019080803560ff169060200190929190505050611456565b6040518080602001828103825283818151815260200191508051906020019080838360005b8381101561077957808201518184015260208101905061075e565b50505050905090810190601f1680156107a65780820380516001836020036101000a031916815260200191505b509250505060405180910390f35b6107bc611511565b604051808260ff1660ff16815260200191505060405180910390f35b3480156107e457600080fd5b50610814600480360360208110156107fb57600080fd5b81019080803560ff1690602001909291905050506118ad565b604051808260ff1660ff16815260200191505060405180910390f35b6108696004803603604081101561084657600080fd5b81019080803560ff169060200190929190803590602001909291905050506118dd565b604051808260ff1660ff16815260200191505060405180910390f35b34801561089157600080fd5b506108be600480360360208110156108a857600080fd5b8101908080359060200190929190505050611d9b565b604051808273ffffffffffffffffffffffffffffffffffffffff1673ffffffffffffffffffffffffffffffffffffffff16815260200191505060405180910390f35b6109396004803603604081101561091657600080fd5b81019080803560ff16906020019092919080359060200190929190505050611dd9565b005b34801561094757600080fd5b506109746004803603602081101561095e57600080fd5b8101908080359060200190929190505050612772565b6040518082815260200191505060405180910390f35b34801561099657600080fd5b50610a64600480360360608110156109ad57600080fd5b81019080803590602001906401000000008111156109ca57600080fd5b8201836020820111156109dc57600080fd5b803590602001918460018302840111640100000000831117156109fe57600080fd5b91908080601f016020809104026020016040519081016040528093929190818152602001838380828437600081840152601f19601f8201169050808301925050505050505091929192908035906020019092919080359060200190929190505050612792565b005b348015610a7257600080fd5b50610aa260048036036020811015610a8957600080fd5b81019080803560ff169060200190929190505050612ceb565b604051808215151515815260200191505060405180910390f35b600080600090505b600060149054906101000a900460ff1660ff168160ff161015610b68578273ffffffffffffffffffffffffffffffffffffffff1660038260ff16815481101515610b0a57fe5b9060005260206000200160009054906101000a900473ffffffffffffffffffffffffffffffffffffffff1673ffffffffffffffffffffffffffffffffffffffff161415610b5b576001915050610b6e565b8080600101915050610ac4565b50600090505b919050565b60008060009054906101000a900473ffffffffffffffffffffffffffffffffffffffff16905090565b60016020528060005260406000206000915090508060000160009054906101000a900473ffffffffffffffffffffffffffffffffffffffff1690806001018054600181600116156101000203166002900480601f016020809104026020016040519081016040528092919081815260200182805460018160011615610100020316600290048015610c6e5780601f10610c4357610100808354040283529160200191610c6e565b820191906000526020600020905b815481529060010190602001808311610c5157829003601f168201915b5050505050908060020154908060030154908060040160009054906101000a900460ff16908060050154908060060160009054906101000a900460ff16908060060160019054906101000a900460ff16905088565b600460009054906101000a900460ff1681565b600060149054906101000a900460ff1681565b6000600160008460ff16815260200190815260200160002060030154821015610d155760019050610d1a565b600090505b92915050565b6000600160008360ff16815260200190815260200160002060060160019054906101000a900460ff169050919050565b60008060009054906101000a900473ffffffffffffffffffffffffffffffffffffffff1673ffffffffffffffffffffffffffffffffffffffff163373ffffffffffffffffffffffffffffffffffffffff16141515610e16576040517f08c379a00000000000000000000000000000000000000000000000000000000081526004018080602001828103825260188152602001807f4e6f7420616e20617574686f72697a6564206f776e657221000000000000000081525060200191505060405180910390fd5b6000809054906101000a900473ffffffffffffffffffffffffffffffffffffffff1673ffffffffffffffffffffffffffffffffffffffff163373ffffffffffffffffffffffffffffffffffffffff16141515610eda576040517f08c379a000000000000000000000000000000000000000000000000000000000815260040180806020018281038252601d8152602001807f596f7520617265206e6f7420617574686f72697a6564206f776e65722100000081525060200191505060405180910390fd5b600260008560ff16815260200190815260200160002060008460ff1681526020019081526020016000206001015482141515610fa4576040517f08c379a00000000000000000000000000000000000000000000000000000000081526004018080602001828103825260298152602001807f496e636f6e73697374656e7420616d6f756e74206973206265696e672074726181526020017f6e7366657272656421000000000000000000000000000000000000000000000081525060400191505060405180910390fd5b600260008560ff16815260200190815260200160002060008460ff168152602001908152602001600020600101543414151561106e576040517f08c379a00000000000000000000000000000000000000000000000000000000081526004018080602001828103825260298152602001807f496e636f6e73697374656e7420616d6f756e74206973206265696e672074726181526020017f6e7366657272656421000000000000000000000000000000000000000000000081525060400191505060405180910390fd5b600260008560ff16815260200190815260200160002060008460ff1681526020019081526020016000206001015434141515611112576040517f08c379a00000000000000000000000000000000000000000000000000000000081526004018080602001828103825260168152602001807f436865636b207472616e7366657220616d6f756e74210000000000000000000081525060200191505060405180910390fd5b6000600160008660ff16815260200190815260200160002060040160006101000a81548160ff021916908315150217905550600260008560ff16815260200190815260200160002060008460ff16815260200190815260200160002060000160009054906101000a900473ffffffffffffffffffffffffffffffffffffffff1673ffffffffffffffffffffffffffffffffffffffff166108fc600260008760ff16815260200190815260200160002060008660ff168152602001908152602001600020600101549081150290604051600060405180830381858888f19350505050158015611204573d6000803e3d6000fd5b506004600081819054906101000a900460ff168092919060010191906101000a81548160ff021916908360ff1602179055505060018060008660ff16815260200190815260200160002060060160016101000a81548160ff0219169083151502179055507fdf595b3eee117df4b1cb916e24a51a62d5f787f0861ce6520ea2fd6323af24a184604051808260ff1660ff16815260200191505060405180910390a19392505050565b6000600160008360ff16815260200190815260200160002060000160009054906101000a900473ffffffffffffffffffffffffffffffffffffffff169050919050565b6002602052816000526040600020602052806000526040600020600091509150508060000160009054906101000a900473ffffffffffffffffffffffffffffffffffffffff16908060010154908060020154905083565b600080600090505b600060149054906101000a900460ff1660ff168160ff1610156113f4578273ffffffffffffffffffffffffffffffffffffffff1660038260ff1681548110151561139457fe5b9060005260206000200160009054906101000a900473ffffffffffffffffffffffffffffffffffffffff1673ffffffffffffffffffffffffffffffffffffffff1614156113e757600181019150506113fa565b808060010191505061134e565b50600090505b919050565b6000600160008360ff168152602001908152602001600020600301549050919050565b600080603c83024201905080915050919050565b600060016000838152602001908152602001600020600201549050919050565b6060600160008360ff1681526020019081526020016000206001018054600181600116156101000203166002900480601f0160208091040260200160405190810160405280929190818152602001828054600181600116156101000203166002900480156115055780601f106114da57610100808354040283529160200191611505565b820191906000526020600020905b8154815290600101906020018083116114e857829003601f168201915b50505050509050919050565b60008042905060008090506000600190505b600060149054906101000a900460ff1660ff168160ff161115156118a457600160008260ff16815260200190815260200160002060060160019054906101000a900460ff16151561189757600160008260ff16815260200190815260200160002060030154831115611896576000600160008360ff16815260200190815260200160002060040160006101000a81548160ff021916908315150217905550600160008260ff16815260200190815260200160002060020154600160008360ff16815260200190815260200160002060050154101515611716576000600160008360ff16815260200190815260200160002060000160009054906101000a900473ffffffffffffffffffffffffffffffffffffffff1690508073ffffffffffffffffffffffffffffffffffffffff166108fc600160008560ff168152602001908152602001600020600501549081150290604051600060405180830381858888f19350505050158015611699573d6000803e3d6000fd5b50828060010193505060018060008460ff16815260200190815260200160002060060160016101000a81548160ff0219169083151502179055507f5cda1a044f4267aea09f68f1a507191ecf23c1c1d60290e54dab332e14ad7c8982604051808260ff1660ff16815260200191505060405180910390a150611895565b6000600160008360ff16815260200190815260200160002060060160009054906101000a900460ff1690506000600190505b8160ff168111151561181c57600260008460ff168152602001908152602001600020600082815260200190815260200160002060000160009054906101000a900473ffffffffffffffffffffffffffffffffffffffff1673ffffffffffffffffffffffffffffffffffffffff166108fc600260008660ff1681526020019081526020016000206000848152602001908152602001600020600101549081150290604051600060405180830381858888f1935050505015801561180e573d6000803e3d6000fd5b508080600101915050611748565b50828060010193505060018060008460ff16815260200190815260200160002060060160016101000a81548160ff0219169083151502179055507fdf595b3eee117df4b1cb916e24a51a62d5f787f0861ce6520ea2fd6323af24a182604051808260ff1660ff16815260200191505060405180910390a1505b5b5b8080600101915050611523565b50809250505090565b6000600160008360ff16815260200190815260200160002060060160009054906101000a900460ff169050919050565b60008060009054906101000a900473ffffffffffffffffffffffffffffffffffffffff1673ffffffffffffffffffffffffffffffffffffffff163373ffffffffffffffffffffffffffffffffffffffff161415156119a3576040517f08c379a00000000000000000000000000000000000000000000000000000000081526004018080602001828103825260188152602001807f4e6f7420616e20617574686f72697a6564206f776e657221000000000000000081525060200191505060405180910390fd5b6000809054906101000a900473ffffffffffffffffffffffffffffffffffffffff1673ffffffffffffffffffffffffffffffffffffffff163373ffffffffffffffffffffffffffffffffffffffff16141515611a67576040517f08c379a000000000000000000000000000000000000000000000000000000000815260040180806020018281038252601d8152602001807f596f7520617265206e6f7420617574686f72697a6564206f776e65722100000081525060200191505060405180910390fd5b600160008460ff1681526020019081526020016000206005015482141515611af7576040517f08c379a000000000000000000000000000000000000000000000000000000000815260040180806020018281038252601f8152602001807f616d6f756e74213d70726f6a656374735b69645d2e636f6c6c656374696f6e0081525060200191505060405180910390fd5b600160008460ff1681526020019081526020016000206005015434141515611bad576040517f08c379a00000000000000000000000000000000000000000000000000000000081526004018080602001828103825260298152602001807f496e636f6e73697374656e7420616d6f756e74206973206265696e672074726181526020017f6e7366657272656421000000000000000000000000000000000000000000000081525060400191505060405180910390fd5b600160008460ff1681526020019081526020016000206005015434141515611c3d576040517f08c379a00000000000000000000000000000000000000000000000000000000081526004018080602001828103825260168152602001807f436865636b207472616e7366657220616d6f756e74210000000000000000000081525060200191505060405180910390fd5b6000600160008560ff16815260200190815260200160002060040160006101000a81548160ff0219169083151502179055506000600160008560ff16815260200190815260200160002060000160009054906101000a900473ffffffffffffffffffffffffffffffffffffffff1690508073ffffffffffffffffffffffffffffffffffffffff166108fc349081150290604051600060405180830381858888f19350505050158015611cf3573d6000803e3d6000fd5b506004600081819054906101000a900460ff168092919060010191906101000a81548160ff021916908360ff1602179055505060018060008660ff16815260200190815260200160002060060160016101000a81548160ff0219169083151502179055507f5cda1a044f4267aea09f68f1a507191ecf23c1c1d60290e54dab332e14ad7c8984604051808260ff1660ff16815260200191505060405180910390a15092915050565b600381815481101515611daa57fe5b906000526020600020016000915054906101000a900473ffffffffffffffffffffffffffffffffffffffff1681565b6000809054906101000a900473ffffffffffffffffffffffffffffffffffffffff1673ffffffffffffffffffffffffffffffffffffffff163373ffffffffffffffffffffffffffffffffffffffff161415611e9c576040517f08c379a000000000000000000000000000000000000000000000000000000000815260040180806020018281038252601c8152602001807f4f776e65722063616e6e6f742066756e6420612050726f6a656374210000000081525060200191505060405180910390fd5b600160008360ff16815260200190815260200160002060000160009054906101000a900473ffffffffffffffffffffffffffffffffffffffff1673ffffffffffffffffffffffffffffffffffffffff163373ffffffffffffffffffffffffffffffffffffffff161415611f9d576040517f08c379a00000000000000000000000000000000000000000000000000000000081526004018080602001828103825260218152602001807f596f752063616e6e6f742066756e6420796f7572206f776e2070726f6a65637481526020017f210000000000000000000000000000000000000000000000000000000000000081525060400191505060405180910390fd5b600160008360ff1681526020019081526020016000206003015442111561202c576040517f08c379a00000000000000000000000000000000000000000000000000000000081526004018080602001828103825260148152602001807f50726f6a656374206973206e6f74206c6976652e00000000000000000000000081525060200191505060405180910390fd5b60003414156120a3576040517f08c379a00000000000000000000000000000000000000000000000000000000081526004018080602001828103825260158152602001807f53656e64206d696e696d756d203120657468657221000000000000000000000081525060200191505060405180910390fd5b600160008360ff16815260200190815260200160002060060160019054906101000a900460ff161561213d576040517f08c379a00000000000000000000000000000000000000000000000000000000081526004018080602001828103825260118152602001807f50726f6a65637420697320636c6f73656400000000000000000000000000000081525060200191505060405180910390fd5b34811415156121da576040517f08c379a00000000000000000000000000000000000000000000000000000000081526004018080602001828103825260278152602001807f496e636f6e73697374656e7420446174612046656420746f2074686520436f6e81526020017f737472616374210000000000000000000000000000000000000000000000000081525060400191505060405180910390fd5b600160008360ff16815260200190815260200160002060060160019054906101000a900460ff16151515612276576040517f08c379a00000000000000000000000000000000000000000000000000000000081526004018080602001828103825260118152602001807f50726f6a65637420697320636c6f73656400000000000000000000000000000081525060200191505060405180910390fd5b60011515600160008460ff16815260200190815260200160002060040160009054906101000a900460ff161515141515612318576040517f08c379a00000000000000000000000000000000000000000000000000000000081526004018080602001828103825260208152602001807f50726f6a656374206973206e6f74206f70656e20666f722066756e64696e672e81525060200191505060405180910390fd5b600160008360ff16815260200190815260200160002060000160009054906101000a900473ffffffffffffffffffffffffffffffffffffffff1673ffffffffffffffffffffffffffffffffffffffff163373ffffffffffffffffffffffffffffffffffffffff16141515156123f5576040517f08c379a000000000000000000000000000000000000000000000000000000000815260040180806020018281038252601e8152602001807f43616e6e6f742066756e642066726f6d2074686973206163636f756e7421000081525060200191505060405180910390fd5b600160008360ff1681526020019081526020016000206003015442101515612485576040517f08c379a00000000000000000000000000000000000000000000000000000000081526004018080602001828103825260128152602001807f50726f6a65637420697320636c6f73656421000000000000000000000000000081525060200191505060405180910390fd5b600160008360ff16815260200190815260200160002060020154600160008460ff1681526020019081526020016000206005015410151561252e576040517f08c379a000000000000000000000000000000000000000000000000000000000815260040180806020018281038252601f8152602001807f50726f6a6563742068617320726561636865642069747320746172676574210081525060200191505060405180910390fd5b6000809054906101000a900473ffffffffffffffffffffffffffffffffffffffff1673ffffffffffffffffffffffffffffffffffffffff166108fc829081150290604051600060405180830381858888f19350505050158015612595573d6000803e3d6000fd5b5080600160008460ff1681526020019081526020016000206005015401600160008460ff16815260200190815260200160002060050181905550600160008360ff168152602001908152602001600020600601600081819054906101000a900460ff168092919060010191906101000a81548160ff021916908360ff160217905550506060604051908101604052803373ffffffffffffffffffffffffffffffffffffffff16815260200182815260200142815250600260008460ff1681526020019081526020016000206000600160008660ff16815260200190815260200160002060060160009054906101000a900460ff1660ff16815260200190815260200160002060008201518160000160006101000a81548173ffffffffffffffffffffffffffffffffffffffff021916908373ffffffffffffffffffffffffffffffffffffffff16021790555060208201518160010155604082015181600201559050507fcd909ec339185c4598a4096e174308fbdf136d117f230960f873a2f2e81f63af338334604051808473ffffffffffffffffffffffffffffffffffffffff1673ffffffffffffffffffffffffffffffffffffffff1681526020018360ff168152602001828152602001935050505060405180910390a15050565b600060016000838152602001908152602001600020600501549050919050565b6000809054906101000a900473ffffffffffffffffffffffffffffffffffffffff1673ffffffffffffffffffffffffffffffffffffffff163373ffffffffffffffffffffffffffffffffffffffff16141561287b576040517f08c379a00000000000000000000000000000000000000000000000000000000081526004018080602001828103825260268152602001807f4f776e65722063616e6e6f7420637265617465206f722066756e64206120707281526020017f6f6a65637421000000000000000000000000000000000000000000000000000081525060400191505060405180910390fd5b6000809054906101000a900473ffffffffffffffffffffffffffffffffffffffff1673ffffffffffffffffffffffffffffffffffffffff163373ffffffffffffffffffffffffffffffffffffffff1614151515612966576040517f08c379a000000000000000000000000000000000000000000000000000000000815260040180806020018281038252602d8152602001807f596f752063616e6e6f74206372656174652070726f6a656374207573696e672081526020017f74686973206163636f756e74210000000000000000000000000000000000000081525060400191505060405180910390fd5b61296f33610abc565b15612a08576040517f08c379a00000000000000000000000000000000000000000000000000000000081526004018080602001828103825260298152602001807f596f752063616e6e6f7420637265617465206d6f7265207468616e206f6e652081526020017f70726f6a6563747321000000000000000000000000000000000000000000000081525060400191505060405180910390fd5b6000601481819054906101000a900460ff168092919060010191906101000a81548160ff021916908360ff16021790555050610100604051908101604052803373ffffffffffffffffffffffffffffffffffffffff168152602001848152602001838152602001612a7883611422565b815260200160011515815260200160008152602001600060ff16815260200160001515815250600160008060149054906101000a900460ff1660ff16815260200190815260200160002060008201518160000160006101000a81548173ffffffffffffffffffffffffffffffffffffffff021916908373ffffffffffffffffffffffffffffffffffffffff1602179055506020820151816001019080519060200190612b25929190612d3b565b50604082015181600201556060820151816003015560808201518160040160006101000a81548160ff02191690831515021790555060a0820151816005015560c08201518160060160006101000a81548160ff021916908360ff16021790555060e08201518160060160016101000a81548160ff02191690831515021790555090505060033390806001815401808255809150509060018203906000526020600020016000909192909190916101000a81548173ffffffffffffffffffffffffffffffffffffffff021916908373ffffffffffffffffffffffffffffffffffffffff160217905550507f14d412ab7f17dd4a99523bcd692333c46877e622687304dabefc4ba03dd0399e338484604051808473ffffffffffffffffffffffffffffffffffffffff1673ffffffffffffffffffffffffffffffffffffffff16815260200180602001838152602001828103825284818151815260200191508051906020019080838360005b83811015612caa578082015181840152602081019050612c8f565b50505050905090810190601f168015612cd75780820380516001836020036101000a031916815260200191505b5094505050505060405180910390a1505050565b6000600160008360ff16815260200190815260200160002060020154600160008460ff16815260200190815260200160002060050154101515612d315760019050612d36565b600090505b919050565b828054600181600116156101000203166002900490600052602060002090601f016020900481019282601f10612d7c57805160ff1916838001178555612daa565b82800160010185558215612daa579182015b82811115612da9578251825591602001919060010190612d8e565b5b509050612db79190612dbb565b5090565b612ddd91905b80821115612dd9576000816000905550600101612dc1565b5090565b9056fea165627a7a72305820567deb9dbd6dbdd2c8c11eb07a991ceb77d9f7bc3e090878cec11f7b03f006370029",
  "source": "//SPDX-License-Identifier: GPL-3.0\r\npragma solidity >=0.5.0;\r\n\r\ncontract Crowdfunding {\r\n    \r\n    address payable private wallet;\r\n    uint8 public nProjects;\r\n    \r\n    constructor() public{\r\n        wallet = msg.sender;\r\n        nProjects = 0;\r\n    }\r\n    \r\n    struct Fund {\r\n        address payable fromAcc;\r\n        uint256 amount;\r\n        uint timestamp;\r\n    }\r\n    \r\n    struct Project {\r\n        address account;\r\n        string name;\r\n        uint256 target;\r\n        uint256 life;\r\n        bool isLive;\r\n        uint256 collection;\r\n        uint8 nFundings;\r\n        bool closed;\r\n    }\r\n    \r\n    mapping(uint => Project) public projects;\r\n    mapping(uint => mapping(uint=>Fund)) public fundings;\r\n    address[] public projectAccounts;\r\n    uint8 public nClosed = 0;\r\n    \r\n    event Funded(address sender, uint project, uint256 amount);     \r\n    event ProjectCreated(address projectAcc, string name, uint256 target);\r\n    event TargetReached(uint8 projectId);\r\n    event ProjectFailed(uint8 projectId);\r\n    event ProjectClosed(uint8 projectId, string name);\r\n    event checkProjectStatus(uint8 projectId);\r\n    \r\n    \r\n    // Project Cannot be created with contract account.\r\n    // One account can create multiple projects.\r\n    // A funder account can become a project account, if project fails, then funded amount will\r\n    // be returned but will not be counted in project collection\r\n    // Integer value for alve_for attribute will be considered in minutes\r\n    function createProject(string memory _name, uint256 _target,uint256 alive_for) public{\r\n        if(msg.sender==wallet)\r\n            revert(\"Owner cannot create or fund a project!\");\r\n        require(msg.sender!= wallet,\"You cannot create project using this account!\");\r\n        if(isProject(msg.sender))\r\n            revert(\"You cannot create more than one projects!\");\r\n        nProjects ++;\r\n        projects[nProjects] = Project(msg.sender,_name,_target,nowPlus(alive_for),true,0,0,false);\r\n        projectAccounts.push(msg.sender);\r\n        emit ProjectCreated(msg.sender, _name, _target);\r\n    }\r\n\r\n    function isProject(address acc) public view returns (bool){\r\n        for(uint8 i= 0; i < nProjects; i++ ){\r\n            if(projectAccounts[i]==acc){\r\n                return true;\r\n            }\r\n        }\r\n        return false;\r\n    }\r\n\r\n    function getProjectId(address acc) public view returns (uint8){\r\n        for(uint8 i= 0; i < nProjects; i++ ){\r\n            if(projectAccounts[i]==acc){\r\n                return i+1;\r\n            }\r\n        }\r\n        return 0;\r\n    }\r\n\r\n    \r\n    function fundProject(uint8 projectId,uint256 amount) payable external {\r\n        if(msg.sender == wallet)\r\n            revert(\"Owner cannot fund a Project!\");\r\n        if(msg.sender == projects[projectId].account)\r\n            revert(\"You cannot fund your own project!\");\r\n        if(block.timestamp > projects[projectId].life)\r\n            revert(\"Project is not live.\");\r\n        if(msg.value == 0)\r\n            revert(\"Send minimum 1 ether!\");\r\n        if(projects[projectId].closed)\r\n            revert(\"Project is closed\");\r\n        if(amount!=msg.value)\r\n            revert(\"Inconsistent Data Fed to the Constract!\");\r\n        require( !projects[projectId].closed,\"Project is closed\");\r\n        require( projects[projectId].isLive == true,\"Project is not open for funding.\");\r\n        require( msg.sender != projects[projectId].account, \"Cannot fund from this account!\");\r\n        require( block.timestamp < projects[projectId].life, \"Project is closed!\");\r\n        require( projects[projectId].collection < projects[projectId].target, \"Project has reached its target!\");\r\n        wallet.transfer(amount);\r\n        projects[projectId].collection = projects[projectId].collection + amount; \r\n        projects[projectId].nFundings++;\r\n        fundings[projectId][projects[projectId].nFundings]= Fund(msg.sender,amount,block.timestamp);\r\n        emit Funded(msg.sender, projectId, msg.value);\r\n    }\r\n\r\n    function payToProjectAccount(uint8 id,uint256 amount) payable external returns(uint8){\r\n        if(msg.sender!=wallet)\r\n            revert(\"Not an authorized owner!\");\r\n        require(msg.sender == wallet, \"You are not authorized owner!\");\r\n        if(amount!=projects[id].collection)\r\n            revert(\"amount!=projects[id].collection\");\r\n        if(msg.value!=projects[id].collection)\r\n            revert(\"Inconsistent amount is being transferred!\");\r\n        require(msg.value == projects[id].collection,\"Check transfer amount!\");\r\n        projects[id].isLive = false;\r\n        address payable x = address(uint160(projects[id].account));\r\n        x.transfer(msg.value);\r\n        nClosed++;\r\n        projects[id].closed = true;\r\n        emit TargetReached(id);\r\n    }\r\n\r\n    function payToProjectFunder(uint8 id,uint8 fundId,uint256 amount) payable external returns(uint8){\r\n        if(msg.sender!=wallet)\r\n            revert(\"Not an authorized owner!\");\r\n        require(msg.sender == wallet, \"You are not authorized owner!\");\r\n        if(amount!=fundings[id][fundId].amount)\r\n            revert(\"Inconsistent amount is being transferred!\");\r\n        if(msg.value!=fundings[id][fundId].amount)\r\n            revert(\"Inconsistent amount is being transferred!\");\r\n        require(msg.value == fundings[id][fundId].amount,\"Check transfer amount!\");\r\n        projects[id].isLive = false;\r\n        fundings[id][fundId].fromAcc.transfer(fundings[id][fundId].amount);\r\n        nClosed++;\r\n        projects[id].closed = true;\r\n        emit ProjectFailed(id);\r\n    }\r\n    \r\n    \r\n    function projectResults() payable external returns(uint8){\r\n        \r\n        uint256 callingTimeStamp = block.timestamp; \r\n        uint8 n_closed= 0;\r\n        for(uint8 p = 1; p <= nProjects; p++){\r\n            if(!projects[p].closed){\r\n                if(callingTimeStamp > projects[p].life){\r\n                    projects[p].isLive = false;\r\n                    if(projects[p].collection >= projects[p].target){\r\n                        address payable x = address(uint160(projects[p].account));\r\n                        x.transfer(projects[p].collection);\r\n                        n_closed++;\r\n                        projects[p].closed = true;\r\n                        emit TargetReached(p);\r\n                    }\r\n                    else{\r\n                        uint8 n = projects[p].nFundings;\r\n                        for(uint i = 1; i <=n; i++){\r\n                            fundings[p][i].fromAcc.transfer(fundings[p][i].amount);\r\n                        }\r\n                        n_closed++;\r\n                        projects[p].closed = true;\r\n                        emit ProjectFailed(p);\r\n                    }\r\n                }   \r\n            }\r\n            \r\n        }\r\n        return n_closed;\r\n    }\r\n        \r\n    \r\n    function currentContributions(uint projectId) public view returns(uint) {\r\n        return projects[projectId].collection; \r\n    }\r\n    \r\n    function target(uint projectId) public view returns(uint) {\r\n        return projects[projectId].target;\r\n    }\r\n    \r\n    function getProjectName(uint8 projectId) public view returns(string memory) {\r\n        return projects[projectId].name;\r\n    }\r\n\r\n    function getProjectAccount(uint8 projectId) public view returns(address){\r\n        return projects[projectId].account;\r\n    }\r\n    \r\n    function isProjectAlive(uint8 projectId,uint256 currentTime) public view returns(bool){\r\n        if(currentTime < projects[projectId].life){\r\n            return true;\r\n        }\r\n        return false;\r\n    }\r\n\r\n    function isTargetReached(uint8 projectId) public view returns(bool){\r\n        if(projects[projectId].collection>=projects[projectId].target){\r\n            return true;\r\n        }\r\n        return false;\r\n    }\r\n    \r\n    function nowPlus(uint256 x) public view returns(uint256){\r\n        uint256 y = block.timestamp+(x*(1 minutes));\r\n        return y;\r\n    }\r\n    \r\n    function getOwnerAddress() public view returns(address){\r\n        return wallet;\r\n    }\r\n    \r\n    function isClosed(uint8 projectId) public view returns(bool){\r\n        return projects[projectId].closed;\r\n    }\r\n\r\n    function getProjectLife(uint8 projectId) public view returns(uint256){\r\n        return projects[projectId].life;\r\n    }\r\n\r\n    function getNFundings(uint8 projectId) public view returns(uint8){\r\n        return projects[projectId].nFundings;\r\n    }\r\n\r\n} \r\n",
  "sourcePath": "C:/Users/naresh panchal/blockC/crowd-funding/src/contracts/Crowdfunding.sol",
  "compiler": {
    "name": "solc",
    "version": "0.5.0+commit.1d4f565a.Emscripten.clang"
  },
  "schemaVersion": "3.0.1",
  "updatedAt": "2021-04-24T20:59:50.445Z",
  "devdoc": {
    "methods": {}
  },
  "userdoc": {
    "methods": {}
  }
}